:020000020000FC
:100000000FEF0DBF08E00EBF00E80093610004E0B1
:10001000009361000E946B0080E090E004E007B96B
:100020000BEF08B90FEF04B90AB9E0E0F1E03FE3E4
:10003000319336E031933BE531933FE4319336E63B
:1000400031933DE631933DE7319337E031933FE71C
:10005000319337E6319337E731933FE7319339E313
:1000600031933FE3319339E7319331E73193E0E066
:10007000F1E02FEF40E005B300FFFDCF0E945100FB
:1000800016B12117C1F35F70212F10FD0E9470007F
:1000900011FD0E9474004E2F403151F14F3F59F134
:1000A000EACFA89A04E606BD93959A3081F4992781
:1000B000B395BA3061F4BB2783958F70481741F030
:1000C00085B9B53071F716B1211759F30895089520
:1000D000329A8827F5CF03E005BD04E606BD0895F2
:1000E000539531913BB908955A9532913BB9089592
:0C00F000E0E0F1E0C0CFEFE0F1E0BDCFB8
:00000001FF
