:020000020000FC
:100000000FEF0DBF08E00EBF00E80093610004E0B1
:10001000009361000E9463000FEF04B980E090E05C
:1000200000E007B90FEF08B90FEF04B90AB93FE3D1
:10003000E0E0F1E0308336E031933BE531933FE49B
:10004000319336E631933DE631933DE7319337E026
:1000500031933FE7319337E6319337E731933FE709
:10006000319339E331933FE3319339E7319331E70A
:100070003193EFEFF0E02FEF40E005B300FFFDCF4D
:100080000E94520016B12117C1F3212F10FD0E94CA
:10009000680011FD0E946B004E2F4F30F9F04E3F6B
:1000A00001F1EBCFA89A04E606BD93959A3051F47E
:1000B000992783958F7085B98530A1F716B12117DF
:1000C00089F30895089503E005BD04E606BD08958B
:1000D00031913BB9089532913BB90895EFEFF0E0CB
:0800E000CCCFEEE0F1E0C9CF46
:00000001FF
